:020000040800F2
:1000000000500020E51C0008371D0008431D0008B3
:10001000491D00084F1D0008551D00080000000084
:100020000000000000000000000000005B1D000850
:10003000671D000800000000731D00088D190008EE
:10004000351D0008351D0008351D0008351D000848
:10005000351D0008351D0008351D0008351D000838
:10006000351D0008351D0008351D0008351D000828
:10007000351D0008351D0008351D0008351D000818
:10008000351D0008351D0008351D0008351D000808
:10009000351D0008351D0008351D0008351D0008F8
:1000A000351D0008351D0008351D0008351D0008E8
:1000B000351D0008351D0008351D0008351D0008D8
:1000C000351D0008351D0008351D0008351D0008C8
:1000D000351D0008351D0008351D0008351D0008B8
:1000E000351D0008351D0008351D00080000000002
:1000F0000000000000000000000000000000000000
:0C01000000000000000000005FF808F1A3
:10010C0010B5054C237833B9044B13B10448AFF345
:10011C0000800123237010BD14000020000000009B
:10012C00D81F000808B5034B1BB103490348AFF3B4
:10013C00008008BD0000000018000020D81F000837
:10014C0081F0004102E000BF83F0004330B54FEA7C
:10015C0041044FEA430594EA050F08BF90EA020FE9
:10016C001FBF54EA000C55EA020C7FEA645C7FEA7C
:10017C00655C00F0E2804FEA5454D4EB5555B8BF9F
:10018C006D420CDD2C4480EA020281EA030382EA10
:10019C00000083EA010180EA020281EA0303362DA2
:1001AC0088BF30BD11F0004F4FEA01314FF4801C75
:1001BC004CEA113102D0404261EB410113F0004F87
:1001CC004FEA03334CEA133302D0524263EB43033E
:1001DC0094EA050F00F0A780A4F10104D5F1200EDC
:1001EC000DDB02FA0EFC22FA05F2801841F1000137
:1001FC0003FA0EF2801843FA05F359410EE0A5F10B
:10020C0020050EF1200E012A03FA0EFC28BF4CF03B
:10021C00020C43FA05F3C01851EBE37101F00045F1
:10022C0007D54FF0000EDCF1000C7EEB00006EEBFE
:10023C000101B1F5801F1BD3B1F5001F0CD3490888
:10024C005FEA30004FEA3C0C04F101044FEA4452DF
:10025C0012F5800F80F09A80BCF1004F08BF5FEA66
:10026C00500C50F1000041EB045141EA050130BD46
:10027C005FEA4C0C404141EB010111F4801FA4F1E9
:10028C000104E9D191F0000F04BF01460020B1FA3E
:10029C0081F308BF2033A3F10B03B3F120020CDA76
:1002AC000C3208DD02F1140CC2F10C0201FA0CF054
:1002BC0021FA02F10CE002F11402D8BFC2F1200CB9
:1002CC0001FA02F120FA0CFCDCBF41EA0C0190406F
:1002DC00E41AA2BF01EB0451294330BD6FEA0404B8
:1002EC001F3C1CDA0C340EDC04F11404C4F12002A3
:1002FC0020FA04F001FA02F340EA030021FA04F3B5
:10030C0045EA030130BDC4F10C04C4F1200220FA0B
:10031C0002F001FA04F340EA0300294630BD21FA49
:10032C0004F0294630BD94F0000F83F4801306BF0F
:10033C0081F480110134013D4EE77FEA645C18BF03
:10034C007FEA655C29D094EA050F08BF90EA020F9A
:10035C0005D054EA000C04BF1946104630BD91EA92
:10036C00030F1EBF0021002030BD5FEA545C05D195
:10037C004000494128BF41F0004130BD14F58004D4
:10038C003CBF01F5801130BD01F0004545F0FE4148
:10039C0041F470014FF0000030BD7FEA645C1ABF7D
:1003AC00194610467FEA655C1CBF0B46024650EAB4
:1003BC00013406BF52EA033591EA030F41F40021E0
:1003CC0030BD00BF90F0000F04BF0021704730B566
:1003DC004FF4806404F132044FF000054FF000013B
:1003EC0050E700BF90F0000F04BF0021704730B5FC
:1003FC004FF4806404F1320410F0004548BF4042D1
:10040C004FF000013EE700BF42004FEAE2014FEA25
:10041C0031014FEA02701FBF12F07F4393F07F4F00
:10042C0081F06051704792F0000F14BF93F07F4F32
:10043C00704730B54FF4607401F0004521F0004175
:10044C0020E700BF50EA010208BF704730B54FF0FB
:10045C0000050AE050EA010208BF704730B511F000
:10046C00004502D5404261EB41014FF4806404F138
:10047C0032045FEA915C3FF4DCAE4FF003025FEABA
:10048C00DC0C18BF03325FEADC0C18BF033202EB42
:10049C00DC02C2F1200300FA03FC20FA02F001FA9C
:1004AC0003FE40EA0E0021FA02F11444C1E600BF3B
:1004BC004FEA4102B2F1E04324BFB3F5001CDCF17A
:1004CC00FE5C0DD901F0004C4FEAC0024CEA5070B2
:1004DC00B2F1004F40EB830008BF20F001007047E1
:1004EC0011F0804F21D113F13872BCBF01F00040E4
:1004FC00704741F480114FEA5252C2F11802C2F116
:10050C00200C10FA0CF320FA02F018BF40F0010096
:10051C004FEAC1234FEAD32303FA0CFC40EA0C0048
:10052C0023FA02F34FEA4303CCE77FEA625307D185
:10053C0050EA01331EBF4FF0FE4040F440007047BC
:10054C0001F0004040F0FE4040F40000704700BF56
:10055C0080F0004002E000BF81F0004142001FBF6C
:10056C005FEA410392EA030F7FEA226C7FEA236C75
:10057C006AD04FEA1262D2EB1363C1BFD21841406A
:10058C0048404140B8BF5B42192B88BF704710F000
:10059C00004F40F4000020F07F4018BF404211F0A3
:1005AC00004F41F4000121F07F4118BF494292EA0B
:1005BC00030F3FD0A2F1010241FA03FC10EB0C0037
:1005CC00C3F1200301FA03F100F0004302D54942C4
:1005DC0060EB4000B0F5000F13D3B0F1807F06D371
:1005EC0040084FEA310102F10102FE2A51D2B1F169
:1005FC00004F40EBC25008BF20F0010040EA03005E
:10060C007047490040EB000010F4000FA2F101020A
:10061C00EDD1B0FA80FCACF1080CB2EB0C0200FA94
:10062C000CF0AABF00EBC25052421843BCBFD040E2
:10063C001843704792F0000F81F4000106BF80F45C
:10064C0000000132013BB5E74FEA41037FEA226C1F
:10065C0018BF7FEA236C21D092EA030F04D092F0EA
:10066C00000F08BF0846704790EA010F1CBF00201E
:10067C00704712F07F4F04D1400028BF40F000407B
:10068C00704712F100723CBF00F50000704700F09B
:10069C00004343F0FE4040F4000070477FEA2262C2
:1006AC0016BF08467FEA23630146420206BF5FEA93
:1006BC00412390EA010F40F4800070474FF0000393
:1006CC0004E000BF10F0004348BF40425FEA000C5A
:1006DC0008BF704743F0964301464FF000001CE002
:1006EC0050EA010208BF70474FF000030AE000BF58
:1006FC0050EA010208BF704711F0004302D5404296
:10070C0061EB41015FEA010C02BF84460146002007
:10071C0043F0B64308BFA3F18053A3F50003BCFA22
:10072C008CF2083AA3EBC25310DB01FA02FC6344CF
:10073C0000FA02FCC2F12002BCF1004F20FA02F2D6
:10074C0043EB020008BF20F00100704702F12002C9
:10075C0001FA02FCC2F1200250EA4C0021FA02F22A
:10076C0043EB020008BF20EADC7070474FF0FF0C2F
:10077C001CEAD0521EBF1CEAD15392EA0C0F93EA2A
:10078C000C0F6FD01A4480EA010C400218BF5FEACC
:10079C0041211ED04FF0006343EA501043EA51113F
:1007AC00A0FB01310CF00040B1F5000F3EBF490039
:1007BC0041EAD3715B0040EA010062F17F02FD2A3D
:1007CC001DD8B3F1004F40EBC25008BF20F0010020
:1007DC00704790F0000F0CF0004C08BF49024CEA37
:1007EC00502040EA51207F3AC2BFD2F1FF0340EAC9
:1007FC00C250704740F400004FF00003013A5DDC3A
:10080C0012F1190FDCBF00F000407047C2F100027A
:10081C00410021FA02F1C2F1200200FA02FC5FEA67
:10082C00310040F1000053EA4C0308BF20EADC70B1
:10083C00704792F0000F00F0004C02BF400010F423
:10084C00000F013AF9D040EA0C0093F0000F01F0D0
:10085C00004C02BF490011F4000F013BF9D041EAF2
:10086C000C018FE70CEAD15392EA0C0F18BF93EAF4
:10087C000C0F0AD030F0004C18BF31F0004CD8D11E
:10088C0080EA010000F00040704790F0000F17BFA5
:10089C0090F0004F084691F0000F91F0004F14D0EB
:1008AC0092EA0C0F01D142020FD193EA0C0F03D143
:1008BC004B0218BF084608D180EA010000F0004046
:1008CC0040F0FE4040F40000704740F0FE4040F421
:1008DC00400070474FF0FF0C1CEAD0521EBF1CEAC0
:1008EC00D15392EA0C0F93EA0C0F69D0A2EB0302DE
:1008FC0080EA010C49024FEA402037D04FF0805378
:10090C0043EA111143EA10130CF000408B4238BF3C
:10091C005B0042F17D024FF4000C8B4224BF5B1A4A
:10092C0040EA0C00B3EB510F24BFA3EB510340EA98
:10093C005C00B3EB910F24BFA3EB910340EA9C0046
:10094C00B3EBD10F24BFA3EBD10340EADC001B01B6
:10095C0018BF5FEA1C1CE0D1FD2A3FF650AF8B425A
:10096C0040EBC25008BF20F0010070470CF0004C67
:10097C004CEA50207F32C2BFD2F1FF0340EAC25092
:10098C00704740F400004FF00003013A37E792F053
:10099C00000F00F0004C02BF400010F4000F013AB1
:1009AC00F9D040EA0C0093F0000F01F0004C02BFAC
:1009BC00490011F4000F013BF9D041EA0C0195E715
:1009CC000CEAD15392EA0C0F08D142027FF47DAFAE
:1009DC0093EA0C0F7FF470AF084676E793EA0C0F9E
:1009EC0004D14B023FF44CAF08466EE730F0004C9C
:1009FC0018BF31F0004CCAD130F000427FF45CAF2C
:100A0C0031F000437FF43CAF5FE700BF42000ED2F1
:100A1C00B2F1FE4F0BD34FF09E03B3EB126209D42D
:100A2C004FEA002343F0004323FA02F070474FF0E3
:100A3C000000704712F1610F01D1420202D14FF058
:100A4C00FF3070474FF00000704700BF80B483B098
:100A5C0000AF0346FB710B46BB7113467B71FB79F0
:100A6C00012B3AD0022B6DD0002B00D0A4E0BB7927
:100A7C00072B15D85349534B1B68BA7992000F209A
:100A8C0000FA02F2D24313400B604E484D4B1B68E8
:100A9C007979BA79920001FA02F21343036086E085
:100AAC00BB790F2B00F28380BB79083BBB714549A6
:100ABC00444B5B68BA7992000F2000FA02F2D243E1
:100ACC0013404B603F483F4B5B687979BA79920091
:100ADC0001FA02F21343436069E0BB79072B15D886
:100AEC003949394B1B68BA7992000F2000FA02F28F
:100AFC00D24313400B603448334B1B687979BA7975
:100B0C00920001FA02F21343036052E0BB790F2BFF
:100B1C004FD8BB79083BBB712B492B4B5B68BA791F
:100B2C0092000F2000FA02F2D24313404B60264889
:100B3C00254B5B687979BA79920001FA02F213437A
:100B4C00436036E0BB79072B15D820491F4B1B6837
:100B5C00BA7992000F2000FA02F2D24313400B60D4
:100B6C001A481A4B1B687979BA79920001FA02F289
:100B7C00134303601FE0BB790F2B1CD8BB79083BD8
:100B8C00BB711249114B5B68BA7992000F2000FAC5
:100B9C0002F2D24313404B600C480C4B5B687979E2
:100BAC00BA79920001FA02F21343436003E000BFEA
:100BBC0002E000BF00E000BF00BF0C37BD4680BCA8
:100BCC00704700BF00080140000C014000100140BC
:100BDC0080B582B000AF092000F034FA554B18787C
:100BEC00554B1B880022194600F0BAFB534B0022D0
:100BFC001A701C23FB800023BB8000237B8079E0D0
:100C0C00FB884F4AD35C0D2B18D1FB8801334C4A1F
:100C1C00D35C0A2B12D1FB880233494AD35C2B2BB1
:100C2C000CD102E0FB880133FB80FB88444AD35C87
:100C3C003A2BF7D1FB880133FB805BE0FB88404A01
:100C4C00D35C0D2B19D1FB8801333D4AD35C0A2BA5
:100C5C0013D1FB8802333A4AD35C2B2B0DD07B8803
:100C6C009BB201339BB27B80FB880233FB80002359
:100C7C00BB80344800F0E3FD3CE0FB88304AD35C99
:100C8C000D2B2BD1FB8801332D4AD35C0D2B25D199
:100C9C00FB8802332A4AD35C0A2B1FD1FB8803330F
:100CAC00274AD35C2B2B19D17B889BB201339BB287
:100CBC007B80FB880233FB800023BB80214800F043
:100CCC00BEFD02E0FB880133FB80FB881C4AD35C31
:100CDC003A2BF7D1FB880233FB800BE0BB88FA88F8
:100CEC001749895C174AD154BB880133BB80FB88F8
:100CFC000133FB80FB88124AD35C432B80D1FB88E9
:100D0C0001330F4AD35C4C2B7FF47AAF0B4B1B781F
:100D1C00DBB2012B02D1092000F094F9054B1878B5
:100D2C00054B1B880122194600F01AFB00BF08373F
:100D3C00BD4680BD10000020120000205C01002088
:100D4C00700100203000002080B584B000AF7860C6
:100D5C000023FB7306E0786800F06EFE00F0F4F8F8
:100D6C000346FB73FB7B002BF5D000BF1037BD4651
:100D7C0080BD000098B500AF0A4A42F210734FF0E4
:100D8C00000482E818000848FFF7DEFF054A42F22B
:100D9C0010734FF0000482E818000448FFF7D4FFEA
:100DAC0000BF98BD08000020F01F0008F81F0008C5
:100DBC0090B583B000AF0023FB710023BB710023FF
:100DCC007B7100233B71224A4CF250334FF00004EC
:100DDC0082E8180000F0A6F81E48FFF7B5FF1C4A81
:100DEC001D4B4FF0000482E818001DE01B4800F07A
:100DFC0023FE00237B710AE000F044FE03467B7166
:100E0C00BB7917497A79CA54BB790133BB717B79A9
:100E1C00FF2BF1D1124B1B7E4F2B05D1104B5B7E60
:100E2C004B2B01D10123FB71FB79002BDED00C4B3A
:100E3C0093F825303B713B79DBB2184600F076FB1A
:100E4C0003463B713B79DBB218460C37BD4690BD6F
:100E5C000800002008200008400D0300182000089E
:100E6C007001002090B583B000AF0023FB7100230C
:100E7C00BB800023FB701C4A4CF250334FF0000433
:100E8C0082E8180000F04EF81848FFF75DFF164A8C
:100E9C00174B4FF0000482E818001DE0154800F0D5
:100EAC00CBFD0023FB700AE000F0ECFD0346FB7069
:100EBC00BB881149FA78CA54BB880133BB80FB78D4
:100ECC00FF2BF1D10C4B1B7E4F2B05D10A4B5B7EBC
:100EDC004B2B01D10123FB71FB79002BDED000BF22
:100EEC000C37BD4690BD00BF08000020482000080C
:100EFC0040420F00582000087001002098B500AF48
:100F0C00054A064B4FF0000482E818000448FFF72E
:100F1C001BFF00BF98BD00BF0800002040771B00DE
:100F2C009020000898B500AF054A42F210734FF0BC
:100F3C00000482E818000348FFF706FF00BF98BDC5
:100F4C0008000020C020000880B59AB000AF3B46D6
:100F5C0064220021184600F0EBFF002387F867306D
:100F6C00002387F86630002387F8653012E000F024
:100F7C0089FD034687F8653097F8663007F16802FB
:100F8C00134497F8652003F8682C97F86630013302
:100F9C0087F8663097F86530FF2BE8D1BB78DBB269
:100FAC004F2B07D1FB78DBB24B2B03D1012387F8F6
:100FBC00673041E07B7ADBB24F2B07D1BB7ADBB2D7
:100FCC004B2B03D1012387F8673035E097F830308D
:100FDC00DBB24F2B08D197F83130DBB24B2B03D15E
:100FEC00012387F8673027E0FB7ADBB24F2B07D160
:100FFC003B7BDBB24B2B03D1012387F867301BE023
:10100C00FB7FDBB24F2B08D197F82030DBB24B2B98
:10101C0003D1012387F867300EE03B7ADBB2432B18
:10102C0007D1BB7BDBB2542B03D1012387F867308C
:10103C0002E0002387F8673097F867301846683766
:10104C00BD4680BD80B584B000AF0346FB71FB7913
:10105C00FB73FB79FB7306E0FB7B184600F00AF888
:10106C00FB7B0133FB73FB7B3F2BF5D900BF1037A8
:10107C00BD4680BD80B483B000AF0346FB7100BF9A
:10108C001E4BDB6803F00103012BF9D01B4B1B69D2
:10109C00DB0903F00103012B05D1184B184A5A60E8
:1010AC00164B184A5A60154A144B1B6943F002033D
:1010BC001361124AFB799B0203F1006353610F4ADF
:1010CC000E4B1B6943F04003136100BF0B4BDB68F5
:1010DC0003F00103012BF9D0084A084BDB6843F0FD
:1010EC002003D360054A054B1B6923F002031361EF
:1010FC0000BF0C37BD4680BC704700BF00200240CB
:10110C0023016745AB89EFCD80B487B000AFF860A1
:10111C00B9601346FB710023FB750023BB8200BF33
:10112C00254BDB6803F00103012BF9D0224B1B6923
:10113C00DB0903F00103012B05D11F4B1F4A5A6039
:10114C001D4B1F4A5A600023FB752BE01A4A1A4BA1
:10115C001B6943F001031361FB7D5B00BA68134408
:10116C001B88BB82FB68FA7D5200B9680A4412885E
:10117C001A80FB680233FB6000BF0F4BDB6803F087
:10118C000103012BF9D00C4A0B4BDB6843F0200315
:10119C00D360094A084B1B6923F001031361FB7DE3
:1011AC000133FB75FA7DFB799A42CFD300BF1C3714
:1011BC00BD4680BC704700BF00200240230167453C
:1011CC00AB89EFCD80B400AF084A084B1B6843F4E1
:1011DC008073136000BF054B5B6903F00103002BA8
:1011EC00F9D000BFBD4680BC704700BF0054004022
:1011FC0080B400AF044A044B1B6843F400731360C3
:10120C0000BFBD4680BC70470054004080B485B020
:10121C0000AF0346FB710023FB810B4AFB79136182
:10122C0000BF094B5B695B0803F00103002BF8D08E
:10123C00054B5B69FB81044B9B69FB8100BF143739
:10124C00BD4680BC704700BF0054004080B483B0E2
:10125C0000AF0346FB7100BF0B4B5B69DB0903F06E
:10126C000103002BF8D0084AFB79136100BF064B31
:10127C005B69DB0903F00103002BF8D000BF0C37CE
:10128C00BD4680BC704700BF0054004080B483B0A2
:10129C0000AF00BF074B5B699B0903F00103002BF8
:1012AC00F8D0044B1B69FB71FB7918460C37BD4613
:1012BC0080BC70470054004080B483B000AF002362
:1012CC00FB80264B00221A60244A244B1B6843F4F3
:1012DC0000431360214A214B1B6823F40043136025
:1012EC001E4A1E4B1B6843F4906313601B4B002279
:1012FC005A601A4A194B5B6843F008035360174B4A
:10130C0000229A60154A154B9B6843F48043936006
:10131C00124A124B9B6843F4804393600F4B00229C
:10132C00DA600E4A0D4BDB68D3600C4B0022DA619D
:10133C002823FB800949094BDA69FB881343CB61ED
:10134C00064B09221A62054A044B1B6843F0010341
:10135C00136000BF0C37BD4680BC70470054004082
:10136C0080B582B000AF0346FB710B46BB801346C1
:10137C00BB71304A2F4B1B6843F480631360FFF73B
:10138C0021FFFB795B00DBB21846FFF73FFF294BCF
:10139C005B699B0A03F00103012B07D1FFF728FFC0
:1013AC00244A244B5B6923F480635361BB881B0A7A
:1013BC009BB2DBB21846FFF749FF1E4B5B699B0AD9
:1013CC0003F00103012B07D1FFF712FF194A194B48
:1013DC005B6923F480635361BB88DBB21846FFF76B
:1013EC0035FF144B5B699B0A03F00103012B07D1FA
:1013FC00FFF7FEFE0F4A0F4B5B6923F480635361CA
:10140C00BB791846FFF722FF0A4B5B699B0A03F076
:10141C000103012B07D1FFF7EBFE064A054B5B6975
:10142C0023F480635361FFF7E3FE00BF0837BD462A
:10143C0080BD00BF0054004080B584B000AF0346AF
:10144C000A46FB711346BB80374A374B1B6843F483
:10145C00806313600023FB73FFF7B4FEFB795B0022
:10146C00DBB21846FFF7D2FE2F4B5B699B0A03F0E9
:10147C000103012B07D1FFF7BBFE2B4A2A4B5B69FB
:10148C0023F480635361BB881B0A9BB2DBB2184602
:10149C00FFF7DCFE244B5B699B0A03F00103012B75
:1014AC0007D1FFF7A5FE204A1F4B5B6923F480632D
:1014BC005361BB88DBB21846FFF7C8FE1A4B5B6959
:1014CC009B0A03F00103012B07D1FFF791FE164A8B
:1014DC00154B5B6923F480635361FFF773FEFB7953
:1014EC005B005BB243F001035BB2DBB21846FFF763
:1014FC008DFE0D4B5B699B0A03F00103012B07D199
:10150C00FFF776FE084A084B5B6923F4806353614E
:10151C00FFF7BCFE0346FB73FFF76AFEFB7B184626
:10152C001037BD4680BD00BF0054004080B485B06C
:10153C0000AF0346FB71FB792F2B06D9FB79392BB6
:10154C0003D8FB79303BFB7302E0FB79373BFB7331
:10155C00FB7B18461437BD4680BC704780B592B0F3
:10156C0000AF78600023A7F8463007F10803322259
:10157C000021184600F0DCFC002387F845307B681E
:10158C0001331B781846FFF7D1FF034687F83F302D
:10159C007B6802331B781846FFF7C8FF034687F8B1
:1015AC003E3097F83F301B015AB297F93E30134347
:1015BC005BB287F83D300123A7F8423033E0B7F82F
:1015CC0042305B00013B7A6813441B781846FFF7E6
:1015DC00ADFF034687F83F30B7F842305B001A4640
:1015EC007B6813441B781846FFF7A0FF034687F867
:1015FC003E3097F8453097F83F20120151B297F9D9
:10160C003E200A4352B2D2B207F148010B4403F810
:10161C00402C97F84530013387F84530B7F8423005
:10162C000133A7F84230B7F8422097F83D30053324
:10163C009A42C4DD97F83D30043307F14802134455
:10164C0013F8403C87F83C303B7AA7F8463001232E
:10165C00A7F8403011E0B7F8403007F148021344C6
:10166C0013F8403C9AB2B7F846301344A7F846300A
:10167C00B7F840300133A7F84030B7F8402097F85E
:10168C003D3004339A42E6DBB7F84630DBB25B42BE
:10169C00DBB2A7F84630B7F84630DBB297F83C20FF
:1016AC009A4202D0034B01221A7000BF4837BD4644
:1016BC0080BD00BF5C01002080B586B000AF7860B3
:1016CC000023BB757868FFF749FF7B6801331B78F3
:1016DC001846FFF72BFF03467B757B6802331B789C
:1016EC001846FFF723FF03463B757B7D1B015AB25F
:1016FC0097F9143013435BB2FB747B6803331B788C
:10170C001846FFF713FF0346BB747B6804331B7842
:10171C001846FFF70BFF03467B747B6805331B7879
:10172C001846FFF703FF03463B747B6806331B78B0
:10173C001846FFF7FBFE0346FB73394B1B681B0C6B
:10174C001B04374A1360FA7B354B1B6813433A7CF6
:10175C00120113437A7C12021343BA7C1203134313
:10176C002F4A13600023FB7547E0FB7D9B00093378
:10177C007A6813441B781846FFF7D8FE0346BB74EF
:10178C00FB7D9B000A337A6813441B781846FFF7DD
:10179C00CDFE03467B74FB7D9B000B337A681344B0
:1017AC001B781846FFF7C2FE03463B74FB7D9B007B
:1017BC000C337A6813441B781846FFF7B7FE0346C0
:1017CC00FB73BB7DFA7B120211B23A7C120312B28C
:1017DC000A4311B27A7C12B20A4311B2BA7C1201DA
:1017EC0012B20A4312B291B20E4A22F81310BB7D08
:1017FC000133BB75FB7D0133FB75FB7C5B08DBB2F6
:10180C00FA7D9A42B1D3064B1868FB7C5B08DBB2BD
:10181C001A460449FFF778FC00BF1837BD4680BD57
:10182C00000000209400002080B582B000AF7860EA
:10183C007868FFF793FE00BF0837BD4680BD80B5C2
:10184C0082B000AF78607B6808331B78302B02D0F5
:10185C00342B04D007E07868FFF72EFF03E078689C
:10186C00FFF7E2FF00BF00BF0837BD4680BD000098
:10187C0080B400AF044B81221A60044B00221A6022
:10188C0000BFBD4680BC70470010024004100240EF
:10189C0080B483B000AF03460A46FB711346BB719C
:1018AC00BB791F2B25D8FB79012B0ED0022B16D020
:1018BC00002B00D01DE01149104B1B68BA79012098
:1018CC0000FA02F213430B6013E00D490C4B1B683A
:1018DC00BA79012000FA02F213430B6009E00949BE
:1018EC00084B1B68BA79012000FA02F213430B6013
:1018FC0000BF00BF0C37BD4680BC704714100240BF
:10190C001C1002401810024080B400AF034B0022A0
:10191C001A6000BFBD4680BC704700BF10E000E0FD
:10192C0080B485B000AF7860144A7B685360134A6A
:10193C00124B1B6843F00103136000BF0F4B1B6875
:10194C001B0C03F00103002BF8D00C4B1B681B0C79
:10195C00DBB203F00103FB73084A084B1B6823F04E
:10196C0001031360054B00229A60044B00225A605D
:10197C0000BF1437BD4680BC704700BF10E000E0CC
:10198C0080B582B000AF124B1B78002B11D1114ADD
:10199C00104B1B6823F0020313600E4A0D4B1B689F
:1019AC0023F0010313600B4B00225A60094B0022F9
:1019BC009A60094B1B689847064B1B681B0CDBB2E3
:1019CC0003F00103FB7100BF0837BD4680BD00BFAB
:1019DC006C01002010E000E06001002080B500AF39
:1019EC0000F086F8134B0022DA60124B00221A61C9
:1019FC00104B00225A610F4A0E4BDB68D3600D4A24
:101A0C000C4B1B6913610B4A0A4BDB6843F0040354
:101A1C00D360084A074BDB6843F00803D360054AE0
:101A2C00044BDB6843F40053D360024B00221A6072
:101A3C0000BF80BD0038014080B485B000AF786035
:101A4C000023FB7310E00E49FB7B7A6813441B7870
:101A5C004B6000BF0A4B1B689B0903F00103002B72
:101A6C00F8D0FB7B0133FB73FB7B7A6813441B7848
:101A7C00002BE8D100BF1437BD4680BC704700BFB7
:101A8C000038014090B484B000AF4FF000034FF029
:101A9C000004C7E902340023FB7111E0D7E90234DA
:101AAC00013344F10004C7E902340F4B18CBD7E9DA
:101ABC000212A24208BF994202D1FF23FB7106E039
:101ACC000A4B1B685B0903F00103002BE6D0FB7982
:101ADC00002B02D1054B5B68FB71FB791846103764
:101AEC00BD4690BC704700BF080000200038014084
:101AFC0090B585B000AF224BFB60F868FEF786FF0F
:101B0C0003467B81F868FEF781FF03469BB21846BB
:101B1C00FEF7D8FD03461946F868FEF71DFD03468F
:101B2C007B604FF083417868FEF720FE03467B60B4
:101B3C007868FEF769FC03460C461846214600F00F
:101B4C00FFF903460C4618462146FEF7B1FC034646
:101B5C007B607868FEF75AFF0346FB707B891B019C
:101B6C001AB2FB781BB203F00F031BB213431BB268
:101B7C007B81044A7B89936000BF1437BD4690BDBE
:101B8C008EE38A400038014080B582B000AF144B20
:101B9C001A78144B1B8819461046FFF74DFC034668
:101BAC001A46114B1A70114B1B687B60104B0122AB
:101BBC001A707B68B3F1FF3F0ED00B4B1B78012BD7
:101BCC000AD10C4B4FF000621A60084B1B680A4A92
:101BDC001360094B1B68984700BF0837BD4680BD92
:101BEC0010000020120000206501002004240008D1
:101BFC006401002008ED00E06801002080B582B08F
:101C0C0000AFFFF735FE15210120FFF741FE0E2135
:101C1C000220FFF73DFE02210220FFF739FE0321CF
:101C2C000220FFF735FE04210020FFF731FE0B22C6
:101C3C0009210020FEF70AFF04220A210020FEF7EA
:101C4C0005FF022200210020FEF700FF0F220621D3
:101C5C000120FEF7FBFE0F2207210120FEF7F6FE06
:101C6C00FFF752FEFFF7BAFEFFF726FB1548FFF70A
:101C7C0057FE154B1A78154B1B8819461046FFF763
:101C8C00DBFB03461A46124B1A70FFF773F8FFF78B
:101C9C0035F90CE0FFF78CF80346FB71FB79012B4F
:101CAC0003D1FFF7DFF8FEF793FFFFF76DFF094B4A
:101CBC001B78DBB2002BEDD0002318460837BD464D
:101CCC0080BD00BF40420F00100000201200002019
:101CDC006501002064010020DFF834D0002103E00E
:101CEC000C4B5B58435004310B480C4B42189A4236
:101CFC00F6D30B4A02E0002342F8043B094B9A420C
:101D0C00F9D300F037F800F0EFF8FFF777FF7047E2
:101D1C0000500020F42000080000002014000020D7
:101D2C0014000020083C0020FEE780B400AF00BF88
:101D3C00BD4680BC704780B400AFFEE780B400AFF6
:101D4C00FEE780B400AFFEE780B400AFFEE780B4DE
:101D5C0000AF00BFBD4680BC704780B400AF00BF71
:101D6C00BD4680BC704780B400AF00BFBD4680BC90
:101D7C007047000080B500AF154A154B1B6843F047
:101D8C00010313601249124B5A68124B13404B60FB
:101D9C000F4A0F4B1B6823F0847323F480331360BA
:101DAC000B4A0B4B1B6823F480231360084A084B27
:101DBC005B6823F4FE035360054B4FF41F029A60DB
:101DCC0000F00CF8044B4FF000629A6000BF80BD2D
:101DDC00001002400000FFF800ED00E080B500AFFD
:101DEC0000F002F800BF80BD80B483B000AF0023C8
:101DFC007B6000233B603A4A394B1B6843F48033C9
:101E0C001360374B1B6803F400333B607B68013372
:101E1C007B603B68002B03D17B68B3F5A06FF0D1DE
:101E2C002F4B1B6803F40033002B02D001233B60C3
:101E3C0001E000233B603B68012B4BD1294A294B25
:101E4C001B6843F010031360264A264B1B6823F0D3
:101E5C0003031360234A234B1B6843F002031360F4
:101E6C001F4A1F4B5B6853601D4A1D4B5B685360D8
:101E7C001B4A1B4B5B6843F480635360184A184B36
:101E8C005B6823F47C135360154A154B5B6843F471
:101E9C00E8135360124A124B1B6843F080731360B3
:101EAC0000BF0F4B1B6803F00073002BF9D00C4ADA
:101EBC000B4B5B6823F003035360094A084B5B68C8
:101ECC0043F00203536000BF054B5B6803F00C0347
:101EDC00082BF9D100BF0C37BD4680BC704700BF42
:101EEC00001002400020024070B500250C4E0D4C35
:101EFC00A41BA410A54209D100F068F800250A4ED5
:101F0C000A4CA41BA410A54205D170BD56F825306F
:101F1C0098470135EEE756F8253098470135F2E73A
:101F2C00EC200008EC200008EC200008F020000851
:101F3C0003460244934200D1704703F8011BF9E7B2
:101F4C00F8B5C1F30A57A7F2FF34132C06460D4619
:101F5C000B468E4617DC002C09DA013401F00043E5
:101F6C0003D143F07F5343F44013002229E0164978
:101F7C0021410D4200D188B14FF400232341734419
:101F8C0023EA0103F1E7332C0BDDB4F5806F05D1A7
:101F9C0002460B46FEF7DAF806460D463046294651
:101FAC00F8BD4FF0FF30A7F21347F8400642F5D0CA
:101FBC000121C4F13304A1408A1928BF013322EA5C
:101FCC00000219461046E7E7FFFF0F00F8B500BF07
:101FDC00F8BC08BC9E467047F8B500BFF8BC08BCFE
:041FEC009E46704756
:101FF000415445300D0A000041542B43574D4F4486
:10200000453D310D0A00000041542B4349505345D2
:102010004E443D34360D0A004745542068747470B0
:102020003A2F2F6F74617769746861726D2E6672D2
:1020300065657661722E636F6D2F7374617475734D
:102040002E7478740D0A000041542B4349505345B7
:102050004E443D35320D0A00474554206874747073
:102060003A2F2F6F74617769746861726D2E667292
:1020700065657661722E636F6D2F75706C6F61642C
:10208000732F636F64652E6865780D0A0000000089
:1020900041542B43574A41505F4355523D22486FAC
:1020A0006E6F725F3878222C223031303635313203
:1020B000313138384D6F687923220D0A0000000055
:1020C00041542B43495053544152543D22544350A0
:1020D000222C223136322E3235332E3135352E3206
:0C20E0003236222C38300D0A00000000BF
:0420EC0031010008B6
:0420F0000D010008D6
:1020F400000000080000000010270000000000009D
:0421040050000B007C
:0400000508001CE5EE
:00000001FF
